:100000000C945D000C9485000C9485000C94850084
:100010000C9485000C9485000C9485000C9485004C
:100020000C9485000C9485000C9485000C94F203CC
:100030000C9485000C9485000C9485000C9485002C
:100040000C94A8030C9485000C9476030C94500334
:100050000C9485000C9485000C9485000C9485000C
:100060000C9485000C9485000000000024002700FB
:100070002A0000000000250028002B0004040404CE
:100080000404040402020202020203030303030342
:10009000010204081020408001020408102001021F
:1000A00004081020000000080002010000030407FB
:1000B00000000000000000003B0411241FBECFEF31
:1000C000D8E0DEBFCDBF22E0AAE5B1E001C01D92BD
:1000D000A336B207E1F711E0A0E0B1E0E6E2F0E11B
:1000E00002C005900D92AA35B107D9F710E0CDE511
:1000F000D0E004C02197FE010E940608CC35D1074C
:10010000C9F70E9492040C9411080C940000EEEAC6
:10011000F1E0A089B18982E08C93A485B5851C9219
:10012000A685B78580E18C93108EA489B58986E079
:100130008C93A289B3898C9180618C93A289B389B5
:100140008C9188608C93A289B3898C9180688C9300
:100150000288F389E02D80818F7D80830895CF927E
:10016000DF92EF92FF920F931F93CF93DF936C0177
:100170007A018B01C0E0D0E0CE15DF0589F0D8010F
:100180006D918D01D601ED91FC910190F081E02DF2
:10019000C6010995892B11F47E0102C02196ECCF8E
:1001A000C701DF91CF911F910F91FF90EF90DF90EA
:1001B000CF900895FC01918D828D981761F0828D0A
:1001C000DF01A80FB11D5D968C91928D9F5F9F738B
:1001D000928F90E008958FEF9FEF0895FC01918D2D
:1001E000828D981731F0828DE80FF11D858D90E09A
:1001F00008958FEF9FEF0895FC01918D228D892F37
:1002000090E0805C9F4F821B91098F73992708951E
:100210008EEA91E00E94FC0021E0892B09F420E0A5
:10022000822F0895FC01848DDF01A80FB11DA35A10
:10023000BF4F2C91848D90E001968F739927848F06
:10024000A689B7892C93A089B1898C9180648C93FD
:10025000938D848D981306C00288F389E02D8081E8
:100260008F7D80830895EF92FF920F931F93CF931A
:10027000DF93EC0181E0888F9B8D8C8D981305C0F6
:10028000E889F989808185FD24C0F62E0B8D10E068
:100290000F5F1F4F0F731127E02E8C8DE8120CC0DB
:1002A0000FB607FCFACFE889F989808185FFF5CF81
:1002B000CE010E941201F1CF8B8DFE01E80FF11DDE
:1002C000E35AFF4FF0820B8FEA89FB8980818062BD
:1002D00007C0EE89FF896083E889F989808180649D
:1002E000808381E090E0DF91CF911F910F91FF908B
:1002F000EF900895CF93DF93EC01888D8823C9F0A8
:10030000EA89FB89808185FD05C0A889B9898C911E
:1003100086FD0FC00FB607FCF5CF808185FFF2CFB9
:10032000A889B9898C9185FFEDCFCE010E94120179
:10033000E7CFDF91CF91089580E090E0892B29F0FD
:100340000E94080181110C9400000895833081F00F
:1003500028F4813099F08230A1F008958730A9F017
:100360008830B9F08430D1F4809180008F7D03C053
:10037000809180008F7780938000089584B58F7777
:1003800002C084B58F7D84BD08958091B0008F77C1
:1003900003C08091B0008F7D8093B00008951F93BB
:1003A000CF93DF93282F30E0F901EC55FF4F849174
:1003B000F901E057FF4FD491F901E458FF4FC49180
:1003C000CC23C9F0162F81110E94A601EC2FF0E07A
:1003D000EE0FFF1FEE58FF4FA591B4918FB7F89421
:1003E000111105C09C91ED2FE095E92302C0EC911D
:1003F000ED2BEC938FBFDF91CF911F910895CF9399
:10040000DF9390E0FC01E057FF4F2491FC01E4589A
:10041000FF4F8491882361F190E0880F991FFC01C0
:10042000E859FF4FC591D491FC01EE58FF4FA591BB
:10043000B491611109C09FB7F894888120958223F7
:100440008883EC912E230BC0623061F49FB7F8943F
:100450003881822F809583238883EC912E2B2C93D7
:100460009FBF06C08FB7F894E8812E2B28838FBFDB
:10047000DF91CF9108953FB7F894809163019091F7
:100480006401A0916501B091660126B5A89B05C0E5
:100490002F3F19F00196A11DB11D3FBFBA2FA92F03
:1004A000982F8827820F911DA11DB11DBC01CD0180
:1004B00042E0660F771F881F991F4A95D1F708956C
:1004C0008F929F92AF92BF92CF92DF92EF92FF9264
:1004D0006B017C010E943B024B015C01C114D10401
:1004E000E104F104F1F00E943B02DC01CB01881928
:1004F0009909AA09BB09883E9340A105B10570F38B
:1005000021E0C21AD108E108F10888EE880E83E0E4
:10051000981EA11CB11CC114D104E104F10419F707
:10052000DDCFFF90EF90DF90CF90BF90AF909F9086
:100530008F9008952FB7F89460915F0170916001DA
:1005400080916101909162012FBF08950E940C0873
:100550006115710579F0FB0101900020E9F73197F1
:10056000AF01461B570BDC01ED91FC910280F3813A
:10057000E02D099480E090E008954F925F926F9291
:100580007F92EF92FF920F931F93CF93DF93CDB79C
:10059000DEB7A1970FB6F894DEBF0FBECDBF7C01CA
:1005A000FA01CB0119A2223008F42AE08E010F5D76
:1005B0001F4F422E512C612C712CBF01A3019201BF
:1005C0000E943C07F901CA01015011096A3014F474
:1005D000605D01C0695CD8016C93232B242B252B13
:1005E00061F7B801C7010E94A802A1960FB6F8945E
:1005F000DEBF0FBECDBFDF91CF911F910F91FF9056
:10060000EF907F906F905F904F9008958F929F92A0
:10061000AF92BF92CF92DF92EF92FF920F931F9310
:10062000CF93DF937C01EB016C0182E0C80ED11CFB
:100630004701E5E08E0E911C00E010E0F6014191CB
:100640006F0150E060E070E02AE0CE010E94BD0240
:100650005C01E881F9810190F081E02D6EE2CE012C
:1006600009958A0D9B1D080F191FC814D90431F76D
:10067000F701458150E060E070E02AE0CE010E9481
:10068000BD02800F911FDF91CF911F910F91FF90BD
:10069000EF90DF90CF90BF90AF909F908F90089594
:1006A0001F920F920FB60F9211242F933F934F93E7
:1006B0005F936F937F938F939F93AF93BF93EF93CA
:1006C000FF938EEA91E00E941201FF91EF91BF919A
:1006D000AF919F918F917F916F915F914F913F91DA
:1006E0002F910F900FBE0F901F9018951F920F9291
:1006F0000FB60F9211242F938F939F93EF93FF9335
:10070000E091BE01F091BF018081E091C401F091C0
:10071000C50182FD12C090818091C7018F5F8F73E8
:100720002091C801821751F0E091C701F0E0E25535
:10073000FE4F958F8093C70101C08081FF91EF919B
:100740009F918F912F910F900FBE0F901F90189532
:100750001F920F920FB60F9211242F933F938F93F6
:100760009F93AF93BF9380915F0190916001A0919F
:100770006101B091620130915E0123E0230F2D37BA
:1007800020F40196A11DB11D05C026E8230F029695
:10079000A11DB11D20935E0180935F0190936001C4
:1007A000A0936101B0936201809163019091640113
:1007B000A0916501B09166010196A11DB11D8093C4
:1007C000630190936401A0936501B0936601BF91AA
:1007D000AF919F918F913F912F910F900FBE0F90EE
:1007E0001F9018951F920F920FB60F9211242F93FE
:1007F0003F934F935F936F937F938F939F93AF93A9
:10080000BF93EF93FF9380915D01882341F0809126
:100810005C0191E0980F90935C01882339F08091FE
:100820005C018830B8F010925C0114C060E08AE08E
:100830000E94CF0160E08CE00E94CF0110925D0128
:1008400080915A0190915B01019690935B01809396
:100850005A01E5CFFF91EF91BF91AF919F918F9199
:100860007F916F915F914F913F912F910F900FBEAC
:100870000F901F901895E8EAF1E082E291E09183F1
:1008800080831282138214821582EEEAF1E01382D1
:10089000128248EE53E060E070E044835583668343
:1008A000778322E131E03183208325EC30E0358706
:1008B000248724EC30E03787268720EC30E0318B2A
:1008C000208B21EC30E0338B228B22EC30E0358B17
:1008D000248B26EC30E0378B268B118E128E138EF4
:1008E000148EEBE4F2E091838083128213821482EF
:1008F0001582E1E5F2E091838083128213821482F3
:100900001582E7E5F2E091838083128213821482DC
:100910001582EDE5F2E091838083128213821482C6
:1009200015820895CF93DF93CDB7DEB72E970FB61C
:10093000F894DEBF0FBECDBF789484B5826084BDCD
:1009400084B5816084BD85B5826085BD85B58160D3
:1009500085BD80916E00816080936E001092810051
:10096000809181008260809381008091810081600C
:1009700080938100809180008160809380008091CD
:10098000B10084608093B1008091B0008160809359
:10099000B00080917A00846080937A0080917A0020
:1009A000826080937A0080917A00816080937A00DF
:1009B00080917A00806880937A001092C100109232
:1009C000A4011092A5011092A6011092A701109205
:1009D000720110927301109274011092750160ED12
:1009E00077E080E090E00E9460028EEA91E09093D0
:1009F000A3018093A2010E9487000E949A020091A5
:100A00007201109173012091740130917501DC0124
:100A1000CB01801B910BA20BB30BC297A105B105B3
:100A200038F463E070E080E090E00E946002E5CF7F
:100A30000E949A0260937201709373018093740113
:100A40009093750164E271E08091A2019091A301FD
:100A50000E94A8026AE070E080E090E00E946002DC
:100A600081E0809376010E9487008EE0E0E0F1E073
:100A7000DE01119601900D928A95E1F77E0123E047
:100A8000E20EF11C11E0D7016D917D917D0180E0B6
:100A900090E00E94AE069B01AC0160E074E284E746
:100AA0009BE40E945E079B01AC0160E070E080E87F
:100AB0009FE30E945E079B01AC016FE672E183E851
:100AC00098E30E945E070E94D0074B015C01B2E0F0
:100AD0008B1A9108A108B108EDEF8E16EFEF9E0674
:100AE000A104B10408F487C01F5F173061F66230BB
:100AF00071058105910558F161157105F1E08F07C8
:100B0000910528F5112319F11092800028E0209317
:100B1000810020918100122B109381007093890035
:100B20006093880080916F00826080936F0061E025
:100B30008CE00E94FF0160E08BE00E94FF0161E019
:100B40008AE00E94FF0160E08AE00E94CF0161E03C
:100B500088E00E94FF010E949A02672B682B692B94
:100B600009F04DC00E949A0262307105810591051D
:100B700008F045C03DC00E949A02609372017093D4
:100B80007301809374019093750166E371E0809125
:100B9000A2019091A3010E94A8026EE371E08091EE
:100BA000A2019091A3010E94A8020E949A02AB01A7
:100BB000BC012AE08091A2019091A3010E94BD0294
:100BC00060E471E08091A2019091A3010E94A802CB
:100BD00065E070E080E090E00E9460026AE070E012
:100BE00080E090E00E9460028091760181115FC0F8
:100BF0000E949C01B0CF163009F084CFA8CF0E948C
:100C00009A0260936D0170936E0180936F019093CF
:100C100070010091690110916A0120916B0130917E
:100C20006C01601771078207930740F460936901B4
:100C300070936A0180936B0190936C01009169013C
:100C400010916A0120916B0130916C016B017C0164
:100C5000C01AD10AE20AF30A970186010A3F110578
:100C60002105310528F26093690170936A01809330
:100C70006B0190936C010E949A0200917201109195
:100C800073012091740130917501DC01CB01801B4F
:100C9000910BA20BB30BC297A105B10508F06BCF66
:100CA00063E070E080E090E00E946002E4CF809119
:100CB000A2019091A301DC01ED91FC910480F581EA
:100CC000E02D0995892B99F38091A2019091A301C0
:100CD000DC01ED91FC910480F581E02D0995181659
:100CE00019060CF085CF8091A2019091A301DC013F
:100CF000ED91FC910680F781E02D099599278336C7
:100D0000910551F08637910509F472CF8835910528
:100D1000D9F610927601D8CF69E471E08091A201F2
:100D20009091A3010E94A8022AE041E050E060E017
:100D300070E08091A2019091A3010E94BD0260E544
:100D400071E08091A2019091A3010E94A80262E348
:100D500070E080E090E00E9460024ACFE89409C011
:100D600097FB3EF490958095709561957F4F8F4FDE
:100D70009F4F9923A9F0F92F96E9BB279395F695F4
:100D8000879577956795B795F111F8CFFAF4BB0F72
:100D900011F460FF1BC06F5F7F4F8F4F9F4F16C0D6
:100DA000882311F096E911C0772321F09EE8872F60
:100DB000762F05C0662371F096E8862F70E060E01C
:100DC0002AF09A95660F771F881FDAF7880F969595
:100DD000879597F9089597F99F6780E870E060E03C
:100DE00008959FEF80EC089500240A9416161706C4
:100DF00018060906089500240A941216130614060C
:100E000005060895092E0394000C11F4882352F06E
:100E1000BB0F40F4BF2B11F460FF04C06F5F7F4F26
:100E20008F4F9F4F089557FD9058440F551F59F00D
:100E30005F3F71F04795880F97FB991F61F09F3FC7
:100E400079F087950895121613061406551FF2CFF0
:100E50004695F1DF08C0161617061806991FF1CF40
:100E600086957105610508940895E894BB27662767
:100E70007727CB0197F90895A1E21A2EAA1BBB1B75
:100E8000FD010DC0AA1FBB1FEE1FFF1FA217B30756
:100E9000E407F50720F0A21BB30BE40BF50B661F6C
:100EA000771F881F991F1A9469F760957095809530
:100EB00090959B01AC01BD01CF0108950E9472077E
:100EC0000C9402070E94FB0658F00E94F40640F0C2
:100ED00029F45F3F29F00C94EB0651110C9436076E
:100EE0000C94F1060E94130768F39923B1F355237C
:100EF00091F3951B550BBB27AA276217730784072D
:100F000038F09F5F5F4F220F331F441FAA1FA9F3C2
:100F100035D00E2E3AF0E0E832D091505040E695B0
:100F2000001CCAF72BD0FE2F29D0660F771F881F11
:100F3000BB1F261737074807AB07B0E809F0BB0B04
:100F4000802DBF01FF2793585F4F3AF09E3F510518
:100F500078F00C94EB060C9436075F3FE4F3983E70
:100F6000D4F3869577956795B795F7959F5FC9F701
:100F7000880F911D9695879597F90895E1E0660F82
:100F8000771F881FBB1F621773078407BA0720F0FB
:100F9000621B730B840BBA0BEE1F88F7E095089564
:100FA0000E94D7076894B1110C94360708950E94E7
:100FB0001B0788F09F5798F0B92F9927B751B0F0C9
:100FC000E1F0660F771F881F991F1AF0BA95C9F7CD
:100FD00014C0B13091F00E943507B1E008950C942F
:100FE0003507672F782F8827B85F39F0B93FCCF3E2
:100FF000869577956795B395D9F73EF4909580954A
:10100000709561957F4F8F4F9F4F0895EE0FFF1F93
:101010000590F491E02D099481E090E0F8940C940F
:061020001108F894FFCF57
:10102600000001000800400000010004050D00005A
:1010360000003301AF00FC00DA00EE007A01000088
:1010460000000603564D4450565F317C315F564DC5
:101056004450560D0A00564D4450455F31007C0001
:101066005F564D4450450D0A00564D4450435F00AF
:0A1076005F564D4450430D0A000080
:00000001FF
